{
  "contractName": "HackToken",
  "abi": [
    {
      "inputs": [
        {
          "internalType": "string",
          "name": "_name",
          "type": "string"
        },
        {
          "internalType": "string",
          "name": "_symbol",
          "type": "string"
        }
      ],
      "stateMutability": "nonpayable",
      "type": "constructor"
    },
    {
      "anonymous": false,
      "inputs": [
        {
          "indexed": true,
          "internalType": "address",
          "name": "owner",
          "type": "address"
        },
        {
          "indexed": true,
          "internalType": "address",
          "name": "approved",
          "type": "address"
        },
        {
          "indexed": true,
          "internalType": "uint256",
          "name": "tokenId",
          "type": "uint256"
        }
      ],
      "name": "Approval",
      "type": "event"
    },
    {
      "anonymous": false,
      "inputs": [
        {
          "indexed": true,
          "internalType": "address",
          "name": "owner",
          "type": "address"
        },
        {
          "indexed": true,
          "internalType": "address",
          "name": "operator",
          "type": "address"
        },
        {
          "indexed": false,
          "internalType": "bool",
          "name": "approved",
          "type": "bool"
        }
      ],
      "name": "ApprovalForAll",
      "type": "event"
    },
    {
      "anonymous": false,
      "inputs": [
        {
          "indexed": true,
          "internalType": "address",
          "name": "from",
          "type": "address"
        },
        {
          "indexed": true,
          "internalType": "address",
          "name": "to",
          "type": "address"
        },
        {
          "indexed": true,
          "internalType": "uint256",
          "name": "tokenId",
          "type": "uint256"
        }
      ],
      "name": "Transfer",
      "type": "event"
    },
    {
      "anonymous": false,
      "inputs": [
        {
          "indexed": false,
          "internalType": "address",
          "name": "_to",
          "type": "address"
        },
        {
          "indexed": false,
          "internalType": "string",
          "name": "_serNumber",
          "type": "string"
        },
        {
          "indexed": false,
          "internalType": "uint256",
          "name": "_tokenId",
          "type": "uint256"
        }
      ],
      "name": "mintToken",
      "type": "event"
    },
    {
      "anonymous": false,
      "inputs": [
        {
          "indexed": false,
          "internalType": "address",
          "name": "_from",
          "type": "address"
        },
        {
          "indexed": false,
          "internalType": "address",
          "name": "_to",
          "type": "address"
        },
        {
          "indexed": false,
          "internalType": "uint256",
          "name": "_tokenId",
          "type": "uint256"
        }
      ],
      "name": "transferEvent",
      "type": "event"
    },
    {
      "inputs": [],
      "name": "_numTokens",
      "outputs": [
        {
          "internalType": "uint256",
          "name": "",
          "type": "uint256"
        }
      ],
      "stateMutability": "view",
      "type": "function",
      "constant": true
    },
    {
      "inputs": [
        {
          "internalType": "address",
          "name": "to",
          "type": "address"
        },
        {
          "internalType": "uint256",
          "name": "tokenId",
          "type": "uint256"
        }
      ],
      "name": "approve",
      "outputs": [],
      "stateMutability": "nonpayable",
      "type": "function"
    },
    {
      "inputs": [
        {
          "internalType": "address",
          "name": "owner",
          "type": "address"
        }
      ],
      "name": "balanceOf",
      "outputs": [
        {
          "internalType": "uint256",
          "name": "",
          "type": "uint256"
        }
      ],
      "stateMutability": "view",
      "type": "function",
      "constant": true
    },
    {
      "inputs": [
        {
          "internalType": "uint256",
          "name": "tokenId",
          "type": "uint256"
        }
      ],
      "name": "getApproved",
      "outputs": [
        {
          "internalType": "address",
          "name": "",
          "type": "address"
        }
      ],
      "stateMutability": "view",
      "type": "function",
      "constant": true
    },
    {
      "inputs": [
        {
          "internalType": "address",
          "name": "owner",
          "type": "address"
        },
        {
          "internalType": "address",
          "name": "operator",
          "type": "address"
        }
      ],
      "name": "isApprovedForAll",
      "outputs": [
        {
          "internalType": "bool",
          "name": "",
          "type": "bool"
        }
      ],
      "stateMutability": "view",
      "type": "function",
      "constant": true
    },
    {
      "inputs": [],
      "name": "name",
      "outputs": [
        {
          "internalType": "string",
          "name": "",
          "type": "string"
        }
      ],
      "stateMutability": "view",
      "type": "function",
      "constant": true
    },
    {
      "inputs": [
        {
          "internalType": "uint256",
          "name": "tokenId",
          "type": "uint256"
        }
      ],
      "name": "ownerOf",
      "outputs": [
        {
          "internalType": "address",
          "name": "",
          "type": "address"
        }
      ],
      "stateMutability": "view",
      "type": "function",
      "constant": true
    },
    {
      "inputs": [
        {
          "internalType": "address",
          "name": "from",
          "type": "address"
        },
        {
          "internalType": "address",
          "name": "to",
          "type": "address"
        },
        {
          "internalType": "uint256",
          "name": "tokenId",
          "type": "uint256"
        }
      ],
      "name": "safeTransferFrom",
      "outputs": [],
      "stateMutability": "nonpayable",
      "type": "function"
    },
    {
      "inputs": [
        {
          "internalType": "address",
          "name": "from",
          "type": "address"
        },
        {
          "internalType": "address",
          "name": "to",
          "type": "address"
        },
        {
          "internalType": "uint256",
          "name": "tokenId",
          "type": "uint256"
        },
        {
          "internalType": "bytes",
          "name": "data",
          "type": "bytes"
        }
      ],
      "name": "safeTransferFrom",
      "outputs": [],
      "stateMutability": "nonpayable",
      "type": "function"
    },
    {
      "inputs": [
        {
          "internalType": "address",
          "name": "operator",
          "type": "address"
        },
        {
          "internalType": "bool",
          "name": "approved",
          "type": "bool"
        }
      ],
      "name": "setApprovalForAll",
      "outputs": [],
      "stateMutability": "nonpayable",
      "type": "function"
    },
    {
      "inputs": [
        {
          "internalType": "bytes4",
          "name": "interfaceId",
          "type": "bytes4"
        }
      ],
      "name": "supportsInterface",
      "outputs": [
        {
          "internalType": "bool",
          "name": "",
          "type": "bool"
        }
      ],
      "stateMutability": "view",
      "type": "function",
      "constant": true
    },
    {
      "inputs": [],
      "name": "symbol",
      "outputs": [
        {
          "internalType": "string",
          "name": "",
          "type": "string"
        }
      ],
      "stateMutability": "view",
      "type": "function",
      "constant": true
    },
    {
      "inputs": [
        {
          "internalType": "uint256",
          "name": "tokenId",
          "type": "uint256"
        }
      ],
      "name": "tokenURI",
      "outputs": [
        {
          "internalType": "string",
          "name": "",
          "type": "string"
        }
      ],
      "stateMutability": "view",
      "type": "function",
      "constant": true
    },
    {
      "inputs": [
        {
          "internalType": "address",
          "name": "_to",
          "type": "address"
        },
        {
          "internalType": "string",
          "name": "_serialNumber",
          "type": "string"
        },
        {
          "internalType": "string",
          "name": "_name",
          "type": "string"
        },
        {
          "internalType": "string",
          "name": "_information",
          "type": "string"
        }
      ],
      "name": "mint",
      "outputs": [],
      "stateMutability": "nonpayable",
      "type": "function"
    },
    {
      "inputs": [
        {
          "internalType": "address",
          "name": "_from",
          "type": "address"
        },
        {
          "internalType": "address",
          "name": "_to",
          "type": "address"
        },
        {
          "internalType": "uint256",
          "name": "_tokenId",
          "type": "uint256"
        }
      ],
      "name": "transferFrom",
      "outputs": [],
      "stateMutability": "nonpayable",
      "type": "function"
    },
    {
      "inputs": [
        {
          "internalType": "uint256",
          "name": "_tokenId",
          "type": "uint256"
        }
      ],
      "name": "getPrevOwner",
      "outputs": [
        {
          "internalType": "address",
          "name": "",
          "type": "address"
        }
      ],
      "stateMutability": "view",
      "type": "function",
      "constant": true
    },
    {
      "inputs": [],
      "name": "getSupply",
      "outputs": [
        {
          "internalType": "uint256",
          "name": "",
          "type": "uint256"
        }
      ],
      "stateMutability": "view",
      "type": "function",
      "constant": true
    },
    {
      "inputs": [],
      "name": "getOnwer",
      "outputs": [
        {
          "internalType": "address",
          "name": "",
          "type": "address"
        }
      ],
      "stateMutability": "view",
      "type": "function",
      "constant": true
    }
  ],
  "bytecode": "0x608060405260006008553480156200001657600080fd5b50604051620034943803806200349483398181016040528101906200003c919062000240565b818181600090816200004f919062000510565b50806001908162000061919062000510565b50505033600660006101000a81548173ffffffffffffffffffffffffffffffffffffffff021916908373ffffffffffffffffffffffffffffffffffffffff1602179055505050620005f7565b6000604051905090565b600080fd5b600080fd5b600080fd5b600080fd5b6000601f19601f8301169050919050565b7f4e487b7100000000000000000000000000000000000000000000000000000000600052604160045260246000fd5b6200011682620000cb565b810181811067ffffffffffffffff82111715620001385762000137620000dc565b5b80604052505050565b60006200014d620000ad565b90506200015b82826200010b565b919050565b600067ffffffffffffffff8211156200017e576200017d620000dc565b5b6200018982620000cb565b9050602081019050919050565b60005b83811015620001b657808201518184015260208101905062000199565b60008484015250505050565b6000620001d9620001d38462000160565b62000141565b905082815260208101848484011115620001f857620001f7620000c6565b5b6200020584828562000196565b509392505050565b600082601f830112620002255762000224620000c1565b5b815162000237848260208601620001c2565b91505092915050565b600080604083850312156200025a5762000259620000b7565b5b600083015167ffffffffffffffff8111156200027b576200027a620000bc565b5b62000289858286016200020d565b925050602083015167ffffffffffffffff811115620002ad57620002ac620000bc565b5b620002bb858286016200020d565b9150509250929050565b600081519050919050565b7f4e487b7100000000000000000000000000000000000000000000000000000000600052602260045260246000fd5b600060028204905060018216806200031857607f821691505b6020821081036200032e576200032d620002d0565b5b50919050565b60008190508160005260206000209050919050565b60006020601f8301049050919050565b600082821b905092915050565b600060088302620003987fffffffffffffffffffffffffffffffffffffffffffffffffffffffffffffffff8262000359565b620003a4868362000359565b95508019841693508086168417925050509392505050565b6000819050919050565b6000819050919050565b6000620003f1620003eb620003e584620003bc565b620003c6565b620003bc565b9050919050565b6000819050919050565b6200040d83620003d0565b620004256200041c82620003f8565b84845462000366565b825550505050565b600090565b6200043c6200042d565b6200044981848462000402565b505050565b5b8181101562000471576200046560008262000432565b6001810190506200044f565b5050565b601f821115620004c0576200048a8162000334565b620004958462000349565b81016020851015620004a5578190505b620004bd620004b48562000349565b8301826200044e565b50505b505050565b600082821c905092915050565b6000620004e560001984600802620004c5565b1980831691505092915050565b6000620005008383620004d2565b9150826002028217905092915050565b6200051b82620002c5565b67ffffffffffffffff811115620005375762000536620000dc565b5b620005438254620002ff565b6200055082828562000475565b600060209050601f83116001811462000588576000841562000573578287015190505b6200057f8582620004f2565b865550620005ef565b601f198416620005988662000334565b60005b82811015620005c2578489015182556001820191506020850194506020810190506200059b565b86831015620005e25784890151620005de601f891682620004d2565b8355505b6001600288020188555050505b505050505050565b612e8d80620006076000396000f3fe608060405234801561001057600080fd5b50600436106101165760003560e01c806370a08231116100a2578063b634b8e511610071578063b634b8e5146102df578063b88d4fde146102fd578063c87b56dd14610319578063e985e9c514610349578063f2d03fcf1461037957610116565b806370a08231146102575780637c6db4e91461028757806395d89b41146102a5578063a22cb465146102c357610116565b806323b872dd116100e957806323b872dd146101b557806342842e0e146101d15780634a0706be146101ed5780636352211e146102095780636c9c2faf1461023957610116565b806301ffc9a71461011b57806306fdde031461014b578063081812fc14610169578063095ea7b314610199575b600080fd5b61013560048036038101906101309190611af2565b6103a9565b6040516101429190611b3a565b60405180910390f35b61015361048b565b6040516101609190611be5565b60405180910390f35b610183600480360381019061017e9190611c3d565b61051d565b6040516101909190611cab565b60405180910390f35b6101b360048036038101906101ae9190611cf2565b610563565b005b6101cf60048036038101906101ca9190611d32565b61067a565b005b6101eb60048036038101906101e69190611d32565b6107ea565b005b61020760048036038101906102029190611eba565b61080a565b005b610223600480360381019061021e9190611c3d565b610a05565b6040516102309190611cab565b60405180910390f35b610241610ab6565b60405161024e9190611f84565b60405180910390f35b610271600480360381019061026c9190611f9f565b610b50565b60405161027e9190611f84565b60405180910390f35b61028f610c07565b60405161029c9190611f84565b60405180910390f35b6102ad610c0d565b6040516102ba9190611be5565b60405180910390f35b6102dd60048036038101906102d89190611ff8565b610c9f565b005b6102e7610cb5565b6040516102f49190611cab565b60405180910390f35b610317600480360381019061031291906120d9565b610cdf565b005b610333600480360381019061032e9190611c3d565b610d41565b6040516103409190611be5565b60405180910390f35b610363600480360381019061035e919061215c565b610da9565b6040516103709190611b3a565b60405180910390f35b610393600480360381019061038e9190611c3d565b610e3d565b6040516103a09190611cab565b60405180910390f35b60007f80ac58cd000000000000000000000000000000000000000000000000000000007bffffffffffffffffffffffffffffffffffffffffffffffffffffffff1916827bffffffffffffffffffffffffffffffffffffffffffffffffffffffff1916148061047457507f5b5e139f000000000000000000000000000000000000000000000000000000007bffffffffffffffffffffffffffffffffffffffffffffffffffffffff1916827bffffffffffffffffffffffffffffffffffffffffffffffffffffffff1916145b80610484575061048382610e7d565b5b9050919050565b60606000805461049a906121cb565b80601f01602080910402602001604051908101604052809291908181526020018280546104c6906121cb565b80156105135780601f106104e857610100808354040283529160200191610513565b820191906000526020600020905b8154815290600101906020018083116104f657829003601f168201915b5050505050905090565b600061052882610ee7565b6004600083815260200190815260200160002060009054906101000a900473ffffffffffffffffffffffffffffffffffffffff169050919050565b600061056e82610a05565b90508073ffffffffffffffffffffffffffffffffffffffff168373ffffffffffffffffffffffffffffffffffffffff16036105de576040517f08c379a00000000000000000000000000000000000000000000000000000000081526004016105d59061226e565b60405180910390fd5b8073ffffffffffffffffffffffffffffffffffffffff166105fd610f32565b73ffffffffffffffffffffffffffffffffffffffff16148061062c575061062b81610626610f32565b610da9565b5b61066b576040517f08c379a000000000000000000000000000000000000000000000000000000000815260040161066290612300565b60405180910390fd5b6106758383610f3a565b505050565b80600660009054906101000a900473ffffffffffffffffffffffffffffffffffffffff1673ffffffffffffffffffffffffffffffffffffffff163373ffffffffffffffffffffffffffffffffffffffff16148061070a57506106db81610a05565b73ffffffffffffffffffffffffffffffffffffffff163373ffffffffffffffffffffffffffffffffffffffff16145b610749576040517f08c379a00000000000000000000000000000000000000000000000000000000081526004016107409061236c565b60405180910390fd5b836009600084815260200190815260200160002060040160006101000a81548173ffffffffffffffffffffffffffffffffffffffff021916908373ffffffffffffffffffffffffffffffffffffffff1602179055506107a9848484610ff3565b7f5d439cf3a1f6215b41908e5b0b300f39679a3ff1cc010691c1d4ec4d0e2a4ebb8484846040516107dc9392919061238c565b60405180910390a150505050565b61080583838360405180602001604052806000815250610cdf565b505050565b600660009054906101000a900473ffffffffffffffffffffffffffffffffffffffff1673ffffffffffffffffffffffffffffffffffffffff163373ffffffffffffffffffffffffffffffffffffffff161461089a576040517f08c379a00000000000000000000000000000000000000000000000000000000081526004016108919061240f565b60405180910390fd5b6000600860008154809291906108af9061245e565b9190505590506108bf8582611053565b60006040518060a00160405280868152602001858152602001848152602001428152602001600073ffffffffffffffffffffffffffffffffffffffff168152509050600160075461091091906124a6565b6007819055508060096000848152602001908152602001600020600082015181600001908161093f9190612686565b5060208201518160010190816109559190612686565b50604082015181600201908161096b9190612686565b506060820151816003015560808201518160040160006101000a81548173ffffffffffffffffffffffffffffffffffffffff021916908373ffffffffffffffffffffffffffffffffffffffff1602179055509050507f611b2fed7af3df9474d8f5e903e1010a44fc43fded2f4cde0cc65a1c93e7798286866007546040516109f593929190612758565b60405180910390a1505050505050565b6000806002600084815260200190815260200160002060009054906101000a900473ffffffffffffffffffffffffffffffffffffffff169050600073ffffffffffffffffffffffffffffffffffffffff168173ffffffffffffffffffffffffffffffffffffffff1603610aad576040517f08c379a0000000000000000000000000000000000000000000000000000000008152600401610aa4906127e2565b60405180910390fd5b80915050919050565b6000600660009054906101000a900473ffffffffffffffffffffffffffffffffffffffff1673ffffffffffffffffffffffffffffffffffffffff163373ffffffffffffffffffffffffffffffffffffffff1614610b48576040517f08c379a0000000000000000000000000000000000000000000000000000000008152600401610b3f9061240f565b60405180910390fd5b600754905090565b60008073ffffffffffffffffffffffffffffffffffffffff168273ffffffffffffffffffffffffffffffffffffffff1603610bc0576040517f08c379a0000000000000000000000000000000000000000000000000000000008152600401610bb790612874565b60405180910390fd5b600360008373ffffffffffffffffffffffffffffffffffffffff1673ffffffffffffffffffffffffffffffffffffffff168152602001908152602001600020549050919050565b60085481565b606060018054610c1c906121cb565b80601f0160208091040260200160405190810160405280929190818152602001828054610c48906121cb565b8015610c955780601f10610c6a57610100808354040283529160200191610c95565b820191906000526020600020905b815481529060010190602001808311610c7857829003601f168201915b5050505050905090565b610cb1610caa610f32565b838361122c565b5050565b6000600660009054906101000a900473ffffffffffffffffffffffffffffffffffffffff16905090565b610cf0610cea610f32565b83611398565b610d2f576040517f08c379a0000000000000000000000000000000000000000000000000000000008152600401610d2690612906565b60405180910390fd5b610d3b8484848461142d565b50505050565b6060610d4c82610ee7565b6000610d56611489565b90506000815111610d765760405180602001604052806000815250610da1565b80610d80846114a0565b604051602001610d91929190612962565b6040516020818303038152906040525b915050919050565b6000600560008473ffffffffffffffffffffffffffffffffffffffff1673ffffffffffffffffffffffffffffffffffffffff16815260200190815260200160002060008373ffffffffffffffffffffffffffffffffffffffff1673ffffffffffffffffffffffffffffffffffffffff16815260200190815260200160002060009054906101000a900460ff16905092915050565b60006009600083815260200190815260200160002060040160009054906101000a900473ffffffffffffffffffffffffffffffffffffffff169050919050565b60007f01ffc9a7000000000000000000000000000000000000000000000000000000007bffffffffffffffffffffffffffffffffffffffffffffffffffffffff1916827bffffffffffffffffffffffffffffffffffffffffffffffffffffffff1916149050919050565b610ef081611600565b610f2f576040517f08c379a0000000000000000000000000000000000000000000000000000000008152600401610f26906127e2565b60405180910390fd5b50565b600033905090565b816004600083815260200190815260200160002060006101000a81548173ffffffffffffffffffffffffffffffffffffffff021916908373ffffffffffffffffffffffffffffffffffffffff160217905550808273ffffffffffffffffffffffffffffffffffffffff16610fad83610a05565b73ffffffffffffffffffffffffffffffffffffffff167f8c5be1e5ebec7d5bd14f71427d1e84f3dd0314c0f7b2291e5b200ac8c7c3b92560405160405180910390a45050565b611004610ffe610f32565b82611398565b611043576040517f08c379a000000000000000000000000000000000000000000000000000000000815260040161103a90612906565b60405180910390fd5b61104e83838361166c565b505050565b600073ffffffffffffffffffffffffffffffffffffffff168273ffffffffffffffffffffffffffffffffffffffff16036110c2576040517f08c379a00000000000000000000000000000000000000000000000000000000081526004016110b9906129d2565b60405180910390fd5b6110cb81611600565b1561110b576040517f08c379a000000000000000000000000000000000000000000000000000000000815260040161110290612a3e565b60405180910390fd5b611117600083836118d2565b6001600360008473ffffffffffffffffffffffffffffffffffffffff1673ffffffffffffffffffffffffffffffffffffffff168152602001908152602001600020600082825461116791906124a6565b92505081905550816002600083815260200190815260200160002060006101000a81548173ffffffffffffffffffffffffffffffffffffffff021916908373ffffffffffffffffffffffffffffffffffffffff160217905550808273ffffffffffffffffffffffffffffffffffffffff16600073ffffffffffffffffffffffffffffffffffffffff167fddf252ad1be2c89b69c2b068fc378daa952ba7f163c4a11628f55a4df523b3ef60405160405180910390a4611228600083836118d7565b5050565b8173ffffffffffffffffffffffffffffffffffffffff168373ffffffffffffffffffffffffffffffffffffffff160361129a576040517f08c379a000000000000000000000000000000000000000000000000000000000815260040161129190612aaa565b60405180910390fd5b80600560008573ffffffffffffffffffffffffffffffffffffffff1673ffffffffffffffffffffffffffffffffffffffff16815260200190815260200160002060008473ffffffffffffffffffffffffffffffffffffffff1673ffffffffffffffffffffffffffffffffffffffff16815260200190815260200160002060006101000a81548160ff0219169083151502179055508173ffffffffffffffffffffffffffffffffffffffff168373ffffffffffffffffffffffffffffffffffffffff167f17307eab39ab6107e8899845ad3d59bd9653f200f220920489ca2b5937696c318360405161138b9190611b3a565b60405180910390a3505050565b6000806113a483610a05565b90508073ffffffffffffffffffffffffffffffffffffffff168473ffffffffffffffffffffffffffffffffffffffff1614806113e657506113e58185610da9565b5b8061142457508373ffffffffffffffffffffffffffffffffffffffff1661140c8461051d565b73ffffffffffffffffffffffffffffffffffffffff16145b91505092915050565b61143884848461166c565b611444848484846118dc565b611483576040517f08c379a000000000000000000000000000000000000000000000000000000000815260040161147a90612b3c565b60405180910390fd5b50505050565b606060405180602001604052806000815250905090565b6060600082036114e7576040518060400160405280600181526020017f300000000000000000000000000000000000000000000000000000000000000081525090506115fb565b600082905060005b600082146115195780806115029061245e565b915050600a826115129190612b8b565b91506114ef565b60008167ffffffffffffffff81111561153557611534611d8f565b5b6040519080825280601f01601f1916602001820160405280156115675781602001600182028036833780820191505090505b5090505b600085146115f4576001826115809190612bbc565b9150600a8561158f9190612bf0565b603061159b91906124a6565b60f81b8183815181106115b1576115b0612c21565b5b60200101907effffffffffffffffffffffffffffffffffffffffffffffffffffffffffffff1916908160001a905350600a856115ed9190612b8b565b945061156b565b8093505050505b919050565b60008073ffffffffffffffffffffffffffffffffffffffff166002600084815260200190815260200160002060009054906101000a900473ffffffffffffffffffffffffffffffffffffffff1673ffffffffffffffffffffffffffffffffffffffff1614159050919050565b8273ffffffffffffffffffffffffffffffffffffffff1661168c82610a05565b73ffffffffffffffffffffffffffffffffffffffff16146116e2576040517f08c379a00000000000000000000000000000000000000000000000000000000081526004016116d990612cc2565b60405180910390fd5b600073ffffffffffffffffffffffffffffffffffffffff168273ffffffffffffffffffffffffffffffffffffffff1603611751576040517f08c379a000000000000000000000000000000000000000000000000000000000815260040161174890612d54565b60405180910390fd5b61175c8383836118d2565b611767600082610f3a565b6001600360008573ffffffffffffffffffffffffffffffffffffffff1673ffffffffffffffffffffffffffffffffffffffff16815260200190815260200160002060008282546117b79190612bbc565b925050819055506001600360008473ffffffffffffffffffffffffffffffffffffffff1673ffffffffffffffffffffffffffffffffffffffff168152602001908152602001600020600082825461180e91906124a6565b92505081905550816002600083815260200190815260200160002060006101000a81548173ffffffffffffffffffffffffffffffffffffffff021916908373ffffffffffffffffffffffffffffffffffffffff160217905550808273ffffffffffffffffffffffffffffffffffffffff168473ffffffffffffffffffffffffffffffffffffffff167fddf252ad1be2c89b69c2b068fc378daa952ba7f163c4a11628f55a4df523b3ef60405160405180910390a46118cd8383836118d7565b505050565b505050565b505050565b60006118fd8473ffffffffffffffffffffffffffffffffffffffff16611a63565b15611a56578373ffffffffffffffffffffffffffffffffffffffff1663150b7a02611926610f32565b8786866040518563ffffffff1660e01b81526004016119489493929190612dc9565b6020604051808303816000875af192505050801561198457506040513d601f19601f820116820180604052508101906119819190612e2a565b60015b611a06573d80600081146119b4576040519150601f19603f3d011682016040523d82523d6000602084013e6119b9565b606091505b5060008151036119fe576040517f08c379a00000000000000000000000000000000000000000000000000000000081526004016119f590612b3c565b60405180910390fd5b805181602001fd5b63150b7a0260e01b7bffffffffffffffffffffffffffffffffffffffffffffffffffffffff1916817bffffffffffffffffffffffffffffffffffffffffffffffffffffffff191614915050611a5b565b600190505b949350505050565b6000808273ffffffffffffffffffffffffffffffffffffffff163b119050919050565b6000604051905090565b600080fd5b600080fd5b60007fffffffff0000000000000000000000000000000000000000000000000000000082169050919050565b611acf81611a9a565b8114611ada57600080fd5b50565b600081359050611aec81611ac6565b92915050565b600060208284031215611b0857611b07611a90565b5b6000611b1684828501611add565b91505092915050565b60008115159050919050565b611b3481611b1f565b82525050565b6000602082019050611b4f6000830184611b2b565b92915050565b600081519050919050565b600082825260208201905092915050565b60005b83811015611b8f578082015181840152602081019050611b74565b60008484015250505050565b6000601f19601f8301169050919050565b6000611bb782611b55565b611bc18185611b60565b9350611bd1818560208601611b71565b611bda81611b9b565b840191505092915050565b60006020820190508181036000830152611bff8184611bac565b905092915050565b6000819050919050565b611c1a81611c07565b8114611c2557600080fd5b50565b600081359050611c3781611c11565b92915050565b600060208284031215611c5357611c52611a90565b5b6000611c6184828501611c28565b91505092915050565b600073ffffffffffffffffffffffffffffffffffffffff82169050919050565b6000611c9582611c6a565b9050919050565b611ca581611c8a565b82525050565b6000602082019050611cc06000830184611c9c565b92915050565b611ccf81611c8a565b8114611cda57600080fd5b50565b600081359050611cec81611cc6565b92915050565b60008060408385031215611d0957611d08611a90565b5b6000611d1785828601611cdd565b9250506020611d2885828601611c28565b9150509250929050565b600080600060608486031215611d4b57611d4a611a90565b5b6000611d5986828701611cdd565b9350506020611d6a86828701611cdd565b9250506040611d7b86828701611c28565b9150509250925092565b600080fd5b600080fd5b7f4e487b7100000000000000000000000000000000000000000000000000000000600052604160045260246000fd5b611dc782611b9b565b810181811067ffffffffffffffff82111715611de657611de5611d8f565b5b80604052505050565b6000611df9611a86565b9050611e058282611dbe565b919050565b600067ffffffffffffffff821115611e2557611e24611d8f565b5b611e2e82611b9b565b9050602081019050919050565b82818337600083830152505050565b6000611e5d611e5884611e0a565b611def565b905082815260208101848484011115611e7957611e78611d8a565b5b611e84848285611e3b565b509392505050565b600082601f830112611ea157611ea0611d85565b5b8135611eb1848260208601611e4a565b91505092915050565b60008060008060808587031215611ed457611ed3611a90565b5b6000611ee287828801611cdd565b945050602085013567ffffffffffffffff811115611f0357611f02611a95565b5b611f0f87828801611e8c565b935050604085013567ffffffffffffffff811115611f3057611f2f611a95565b5b611f3c87828801611e8c565b925050606085013567ffffffffffffffff811115611f5d57611f5c611a95565b5b611f6987828801611e8c565b91505092959194509250565b611f7e81611c07565b82525050565b6000602082019050611f996000830184611f75565b92915050565b600060208284031215611fb557611fb4611a90565b5b6000611fc384828501611cdd565b91505092915050565b611fd581611b1f565b8114611fe057600080fd5b50565b600081359050611ff281611fcc565b92915050565b6000806040838503121561200f5761200e611a90565b5b600061201d85828601611cdd565b925050602061202e85828601611fe3565b9150509250929050565b600067ffffffffffffffff82111561205357612052611d8f565b5b61205c82611b9b565b9050602081019050919050565b600061207c61207784612038565b611def565b90508281526020810184848401111561209857612097611d8a565b5b6120a3848285611e3b565b509392505050565b600082601f8301126120c0576120bf611d85565b5b81356120d0848260208601612069565b91505092915050565b600080600080608085870312156120f3576120f2611a90565b5b600061210187828801611cdd565b945050602061211287828801611cdd565b935050604061212387828801611c28565b925050606085013567ffffffffffffffff81111561214457612143611a95565b5b612150878288016120ab565b91505092959194509250565b6000806040838503121561217357612172611a90565b5b600061218185828601611cdd565b925050602061219285828601611cdd565b9150509250929050565b7f4e487b7100000000000000000000000000000000000000000000000000000000600052602260045260246000fd5b600060028204905060018216806121e357607f821691505b6020821081036121f6576121f561219c565b5b50919050565b7f4552433732313a20617070726f76616c20746f2063757272656e74206f776e6560008201527f7200000000000000000000000000000000000000000000000000000000000000602082015250565b6000612258602183611b60565b9150612263826121fc565b604082019050919050565b600060208201905081810360008301526122878161224b565b9050919050565b7f4552433732313a20617070726f76652063616c6c6572206973206e6f7420746f60008201527f6b656e206f776e6572206e6f7220617070726f76656420666f7220616c6c0000602082015250565b60006122ea603e83611b60565b91506122f58261228e565b604082019050919050565b60006020820190508181036000830152612319816122dd565b9050919050565b7f41646d696e206f72206f776e6572206f6e6c792066756e6374696f6e00000000600082015250565b6000612356601c83611b60565b915061236182612320565b602082019050919050565b6000602082019050818103600083015261238581612349565b9050919050565b60006060820190506123a16000830186611c9c565b6123ae6020830185611c9c565b6123bb6040830184611f75565b949350505050565b7f41646d696e206f6e6c792066756e6374696f6e00000000000000000000000000600082015250565b60006123f9601383611b60565b9150612404826123c3565b602082019050919050565b60006020820190508181036000830152612428816123ec565b9050919050565b7f4e487b7100000000000000000000000000000000000000000000000000000000600052601160045260246000fd5b600061246982611c07565b91507fffffffffffffffffffffffffffffffffffffffffffffffffffffffffffffffff820361249b5761249a61242f565b5b600182019050919050565b60006124b182611c07565b91506124bc83611c07565b92508282019050808211156124d4576124d361242f565b5b92915050565b60008190508160005260206000209050919050565b60006020601f8301049050919050565b600082821b905092915050565b60006008830261253c7fffffffffffffffffffffffffffffffffffffffffffffffffffffffffffffffff826124ff565b61254686836124ff565b95508019841693508086168417925050509392505050565b6000819050919050565b600061258361257e61257984611c07565b61255e565b611c07565b9050919050565b6000819050919050565b61259d83612568565b6125b16125a98261258a565b84845461250c565b825550505050565b600090565b6125c66125b9565b6125d1818484612594565b505050565b5b818110156125f5576125ea6000826125be565b6001810190506125d7565b5050565b601f82111561263a5761260b816124da565b612614846124ef565b81016020851015612623578190505b61263761262f856124ef565b8301826125d6565b50505b505050565b600082821c905092915050565b600061265d6000198460080261263f565b1980831691505092915050565b6000612676838361264c565b9150826002028217905092915050565b61268f82611b55565b67ffffffffffffffff8111156126a8576126a7611d8f565b5b6126b282546121cb565b6126bd8282856125f9565b600060209050601f8311600181146126f057600084156126de578287015190505b6126e8858261266a565b865550612750565b601f1984166126fe866124da565b60005b8281101561272657848901518255600182019150602085019450602081019050612701565b86831015612743578489015161273f601f89168261264c565b8355505b6001600288020188555050505b505050505050565b600060608201905061276d6000830186611c9c565b818103602083015261277f8185611bac565b905061278e6040830184611f75565b949350505050565b7f4552433732313a20696e76616c696420746f6b656e2049440000000000000000600082015250565b60006127cc601883611b60565b91506127d782612796565b602082019050919050565b600060208201905081810360008301526127fb816127bf565b9050919050565b7f4552433732313a2061646472657373207a65726f206973206e6f74206120766160008201527f6c6964206f776e65720000000000000000000000000000000000000000000000602082015250565b600061285e602983611b60565b915061286982612802565b604082019050919050565b6000602082019050818103600083015261288d81612851565b9050919050565b7f4552433732313a2063616c6c6572206973206e6f7420746f6b656e206f776e6560008201527f72206e6f7220617070726f766564000000000000000000000000000000000000602082015250565b60006128f0602e83611b60565b91506128fb82612894565b604082019050919050565b6000602082019050818103600083015261291f816128e3565b9050919050565b600081905092915050565b600061293c82611b55565b6129468185612926565b9350612956818560208601611b71565b80840191505092915050565b600061296e8285612931565b915061297a8284612931565b91508190509392505050565b7f4552433732313a206d696e7420746f20746865207a65726f2061646472657373600082015250565b60006129bc602083611b60565b91506129c782612986565b602082019050919050565b600060208201905081810360008301526129eb816129af565b9050919050565b7f4552433732313a20746f6b656e20616c7265616479206d696e74656400000000600082015250565b6000612a28601c83611b60565b9150612a33826129f2565b602082019050919050565b60006020820190508181036000830152612a5781612a1b565b9050919050565b7f4552433732313a20617070726f766520746f2063616c6c657200000000000000600082015250565b6000612a94601983611b60565b9150612a9f82612a5e565b602082019050919050565b60006020820190508181036000830152612ac381612a87565b9050919050565b7f4552433732313a207472616e7366657220746f206e6f6e20455243373231526560008201527f63656976657220696d706c656d656e7465720000000000000000000000000000602082015250565b6000612b26603283611b60565b9150612b3182612aca565b604082019050919050565b60006020820190508181036000830152612b5581612b19565b9050919050565b7f4e487b7100000000000000000000000000000000000000000000000000000000600052601260045260246000fd5b6000612b9682611c07565b9150612ba183611c07565b925082612bb157612bb0612b5c565b5b828204905092915050565b6000612bc782611c07565b9150612bd283611c07565b9250828203905081811115612bea57612be961242f565b5b92915050565b6000612bfb82611c07565b9150612c0683611c07565b925082612c1657612c15612b5c565b5b828206905092915050565b7f4e487b7100000000000000000000000000000000000000000000000000000000600052603260045260246000fd5b7f4552433732313a207472616e736665722066726f6d20696e636f72726563742060008201527f6f776e6572000000000000000000000000000000000000000000000000000000602082015250565b6000612cac602583611b60565b9150612cb782612c50565b604082019050919050565b60006020820190508181036000830152612cdb81612c9f565b9050919050565b7f4552433732313a207472616e7366657220746f20746865207a65726f2061646460008201527f7265737300000000000000000000000000000000000000000000000000000000602082015250565b6000612d3e602483611b60565b9150612d4982612ce2565b604082019050919050565b60006020820190508181036000830152612d6d81612d31565b9050919050565b600081519050919050565b600082825260208201905092915050565b6000612d9b82612d74565b612da58185612d7f565b9350612db5818560208601611b71565b612dbe81611b9b565b840191505092915050565b6000608082019050612dde6000830187611c9c565b612deb6020830186611c9c565b612df86040830185611f75565b8181036060830152612e0a8184612d90565b905095945050505050565b600081519050612e2481611ac6565b92915050565b600060208284031215612e4057612e3f611a90565b5b6000612e4e84828501612e15565b9150509291505056fea2646970667358221220ca9875da61eaaf34bb1ba72d3e9a5abba31e685e24c03ff3290341481b1c81b464736f6c63430008110033",
  "immutableReferences": {},
  "source": "// SPDX-License-Identifier: MIT\npragma solidity >=0.4.22 <0.9.0;\nimport \"@openzeppelin/contracts/token/ERC721/ERC721.sol\";\n\ncontract HackToken is ERC721 {\n    constructor(string memory _name, string memory _symbol)\n        ERC721(_name, _symbol)\n    {\n        _owner = msg.sender;\n    }\n\n    address _owner;\n    uint256 _supply;\n    uint256 public _numTokens = 0;\n\n    mapping(uint256 => Token) tokens;\n\n    event mintToken(address _to, string _serNumber, uint256 _tokenId);\n    event transferEvent(address _from, address _to, uint256 _tokenId);\n\n    struct Token {\n        string serialNumber;\n        string name;\n        string information;\n        uint256 time;\n        address prevOwner;\n    }\n\n    modifier adminOnly() {\n        require(msg.sender == _owner, \"Admin only function\");\n        _;\n    }\n\n    modifier adminOrOwnerOnly(uint256 _tokenId) {\n        require(\n            msg.sender == _owner || msg.sender == ownerOf(_tokenId),\n            \"Admin or owner only function\"\n        );\n        _;\n    }\n\n    function mint(\n        address _to,\n        string memory _serialNumber,\n        string memory _name,\n        string memory _information\n    ) public adminOnly {\n        uint256 _newTokenId = _numTokens++;\n        super._mint(_to, _newTokenId);\n\n        Token memory newToken = Token(\n            _serialNumber,\n            _name,\n            _information,\n            block.timestamp,\n            address(0)\n        );\n        _supply = _supply + 1;\n        tokens[_newTokenId] = newToken;\n        emit mintToken(_to, _serialNumber, _supply);\n    }\n\n    function transferFrom(\n        address _from,\n        address _to,\n        uint256 _tokenId\n    ) public override adminOrOwnerOnly(_tokenId) {\n        tokens[_tokenId].prevOwner = _from;\n        super.transferFrom(_from, _to, _tokenId);\n        emit transferEvent(_from, _to, _tokenId);\n    }\n\n    function getPrevOwner(uint256 _tokenId) public view returns (address) {\n        return tokens[_tokenId].prevOwner;\n    }\n\n    function getSupply() public view adminOnly returns (uint256) {\n        return _supply;\n    }\n\n    function getOnwer() public view returns (address) {\n        return _owner;\n    }\n}\n",
  "sourcePath": "/Users/yangdai/Desktop/CryptoHackathon/solidity/contracts/HackToken.sol",
  "compiler": {
    "name": "solc",
    "version": "0.8.17+commit.8df45f5f.Emscripten.clang"
  },
  "schemaVersion": "3.4.10",
  "updatedAt": "2022-10-08T08:47:03.601Z",
  "networkType": "ethereum",
  "devdoc": {
    "kind": "dev",
    "methods": {
      "approve(address,uint256)": {
        "details": "See {IERC721-approve}."
      },
      "balanceOf(address)": {
        "details": "See {IERC721-balanceOf}."
      },
      "getApproved(uint256)": {
        "details": "See {IERC721-getApproved}."
      },
      "isApprovedForAll(address,address)": {
        "details": "See {IERC721-isApprovedForAll}."
      },
      "name()": {
        "details": "See {IERC721Metadata-name}."
      },
      "ownerOf(uint256)": {
        "details": "See {IERC721-ownerOf}."
      },
      "safeTransferFrom(address,address,uint256)": {
        "details": "See {IERC721-safeTransferFrom}."
      },
      "safeTransferFrom(address,address,uint256,bytes)": {
        "details": "See {IERC721-safeTransferFrom}."
      },
      "setApprovalForAll(address,bool)": {
        "details": "See {IERC721-setApprovalForAll}."
      },
      "supportsInterface(bytes4)": {
        "details": "See {IERC165-supportsInterface}."
      },
      "symbol()": {
        "details": "See {IERC721Metadata-symbol}."
      },
      "tokenURI(uint256)": {
        "details": "See {IERC721Metadata-tokenURI}."
      }
    },
    "version": 1
  },
  "userdoc": {
    "kind": "user",
    "methods": {},
    "version": 1
  }
}