{
  "contractName": "TokenMarket",
  "abi": [
    {
      "inputs": [
        {
          "internalType": "contract HackToken",
          "name": "tokenAddress",
          "type": "address"
        }
      ],
      "stateMutability": "nonpayable",
      "type": "constructor"
    },
    {
      "inputs": [
        {
          "internalType": "uint256",
          "name": "id",
          "type": "uint256"
        },
        {
          "internalType": "uint256",
          "name": "price",
          "type": "uint256"
        }
      ],
      "name": "list",
      "outputs": [],
      "stateMutability": "nonpayable",
      "type": "function"
    },
    {
      "inputs": [
        {
          "internalType": "uint256",
          "name": "id",
          "type": "uint256"
        }
      ],
      "name": "unlist",
      "outputs": [],
      "stateMutability": "nonpayable",
      "type": "function"
    },
    {
      "inputs": [
        {
          "internalType": "uint256",
          "name": "id",
          "type": "uint256"
        }
      ],
      "name": "transferBack",
      "outputs": [],
      "stateMutability": "nonpayable",
      "type": "function"
    },
    {
      "inputs": [
        {
          "internalType": "uint256",
          "name": "id",
          "type": "uint256"
        }
      ],
      "name": "buyToken",
      "outputs": [],
      "stateMutability": "payable",
      "type": "function",
      "payable": true
    }
  ],
  "bytecode": "0x608060405234801561001057600080fd5b50604051610b3a380380610b3a833981810160405281019061003291906100ed565b806000806101000a81548173ffffffffffffffffffffffffffffffffffffffff021916908373ffffffffffffffffffffffffffffffffffffffff1602179055505061011a565b600080fd5b600073ffffffffffffffffffffffffffffffffffffffff82169050919050565b60006100a88261007d565b9050919050565b60006100ba8261009d565b9050919050565b6100ca816100af565b81146100d557600080fd5b50565b6000815190506100e7816100c1565b92915050565b60006020828403121561010357610102610078565b5b6000610111848285016100d8565b91505092915050565b610a11806101296000396000f3fe60806040526004361061003f5760003560e01c80632d296bf11461004457806350fd736714610060578063bf5a4dd314610089578063eae7236f146100b2575b600080fd5b61005e6004803603810190610059919061078a565b6100db565b005b34801561006c57600080fd5b50610087600480360381019061008291906107b7565b6102ca565b005b34801561009557600080fd5b506100b060048036038101906100ab919061078a565b6103ef565b005b3480156100be57600080fd5b506100d960048036038101906100d4919061078a565b610514565b005b6000600160008381526020019081526020016000205403610131576040517f08c379a000000000000000000000000000000000000000000000000000000000815260040161012890610854565b60405180910390fd5b600160008281526020019081526020016000205434101561015157600080fd5b60008060009054906101000a900473ffffffffffffffffffffffffffffffffffffffff1673ffffffffffffffffffffffffffffffffffffffff1663f2d03fcf836040518263ffffffff1660e01b81526004016101ad9190610883565b602060405180830381865afa1580156101ca573d6000803e3d6000fd5b505050506040513d601f19601f820116820180604052508101906101ee91906108fc565b90508073ffffffffffffffffffffffffffffffffffffffff166108fc349081150290604051600060405180830381858888f19350505050158015610236573d6000803e3d6000fd5b5060008054906101000a900473ffffffffffffffffffffffffffffffffffffffff1673ffffffffffffffffffffffffffffffffffffffff166323b872dd3033856040518463ffffffff1660e01b815260040161029493929190610938565b600060405180830381600087803b1580156102ae57600080fd5b505af11580156102c2573d6000803e3d6000fd5b505050505050565b8160008054906101000a900473ffffffffffffffffffffffffffffffffffffffff1673ffffffffffffffffffffffffffffffffffffffff1663f2d03fcf826040518263ffffffff1660e01b81526004016103249190610883565b602060405180830381865afa158015610341573d6000803e3d6000fd5b505050506040513d601f19601f8201168201806040525081019061036591906108fc565b73ffffffffffffffffffffffffffffffffffffffff163373ffffffffffffffffffffffffffffffffffffffff16146103d2576040517f08c379a00000000000000000000000000000000000000000000000000000000081526004016103c9906109bb565b60405180910390fd5b816001600085815260200190815260200160002081905550505050565b8060008054906101000a900473ffffffffffffffffffffffffffffffffffffffff1673ffffffffffffffffffffffffffffffffffffffff1663f2d03fcf826040518263ffffffff1660e01b81526004016104499190610883565b602060405180830381865afa158015610466573d6000803e3d6000fd5b505050506040513d601f19601f8201168201806040525081019061048a91906108fc565b73ffffffffffffffffffffffffffffffffffffffff163373ffffffffffffffffffffffffffffffffffffffff16146104f7576040517f08c379a00000000000000000000000000000000000000000000000000000000081526004016104ee906109bb565b60405180910390fd5b600060016000848152602001908152602001600020819055505050565b8060008054906101000a900473ffffffffffffffffffffffffffffffffffffffff1673ffffffffffffffffffffffffffffffffffffffff1663f2d03fcf826040518263ffffffff1660e01b815260040161056e9190610883565b602060405180830381865afa15801561058b573d6000803e3d6000fd5b505050506040513d601f19601f820116820180604052508101906105af91906108fc565b73ffffffffffffffffffffffffffffffffffffffff163373ffffffffffffffffffffffffffffffffffffffff161461061c576040517f08c379a0000000000000000000000000000000000000000000000000000000008152600401610613906109bb565b60405180910390fd5b60008060009054906101000a900473ffffffffffffffffffffffffffffffffffffffff1673ffffffffffffffffffffffffffffffffffffffff1663f2d03fcf846040518263ffffffff1660e01b81526004016106789190610883565b602060405180830381865afa158015610695573d6000803e3d6000fd5b505050506040513d601f19601f820116820180604052508101906106b991906108fc565b905060008054906101000a900473ffffffffffffffffffffffffffffffffffffffff1673ffffffffffffffffffffffffffffffffffffffff166323b872dd3083866040518463ffffffff1660e01b815260040161071893929190610938565b600060405180830381600087803b15801561073257600080fd5b505af1158015610746573d6000803e3d6000fd5b50505050505050565b600080fd5b6000819050919050565b61076781610754565b811461077257600080fd5b50565b6000813590506107848161075e565b92915050565b6000602082840312156107a05761079f61074f565b5b60006107ae84828501610775565b91505092915050565b600080604083850312156107ce576107cd61074f565b5b60006107dc85828601610775565b92505060206107ed85828601610775565b9150509250929050565b600082825260208201905092915050565b7f496e76616c696420696400000000000000000000000000000000000000000000600082015250565b600061083e600a836107f7565b915061084982610808565b602082019050919050565b6000602082019050818103600083015261086d81610831565b9050919050565b61087d81610754565b82525050565b60006020820190506108986000830184610874565b92915050565b600073ffffffffffffffffffffffffffffffffffffffff82169050919050565b60006108c98261089e565b9050919050565b6108d9816108be565b81146108e457600080fd5b50565b6000815190506108f6816108d0565b92915050565b6000602082840312156109125761091161074f565b5b6000610920848285016108e7565b91505092915050565b610932816108be565b82525050565b600060608201905061094d6000830186610929565b61095a6020830185610929565b6109676040830184610874565b949350505050565b7f4d7573742062652070726576696f7573204f776e657200000000000000000000600082015250565b60006109a56016836107f7565b91506109b08261096f565b602082019050919050565b600060208201905081810360008301526109d481610998565b905091905056fea2646970667358221220264c7f493db148af760ef590cb6f6221dd750cdf29d40e2de318640c83a7d11264736f6c63430008110033",
  "immutableReferences": {},
  "source": "// SPDX-License-Identifier: MIT\npragma solidity >=0.4.22 <0.9.0;\nimport \"./HackToken.sol\";\n\ncontract TokenMarket {\n    HackToken tokenContract;\n    mapping(uint256 => uint256) listPrice;\n\n    constructor(HackToken tokenAddress) {\n        tokenContract = tokenAddress;\n    }\n\n    modifier preOwnerOnly(uint256 id) {\n        require(\n            msg.sender == tokenContract.getPrevOwner(id),\n            \"Must be previous Owner\"\n        );\n        _;\n    }\n\n    function list(uint256 id, uint256 price) public preOwnerOnly(id) {\n        listPrice[id] = price;\n    }\n\n    function unlist(uint256 id) public preOwnerOnly(id) {\n        listPrice[id] = 0;\n    }\n\n    function transferBack(uint256 id) public preOwnerOnly(id) {\n        address preOwner = address(uint160(tokenContract.getPrevOwner(id)));\n        tokenContract.transferFrom(address(this), preOwner, id);\n    }\n\n    function buyToken(uint256 id) public payable {\n        require(listPrice[id] != 0, \"Invalid id\");\n        require(msg.value >= listPrice[id]);\n\n        address recipient = address(uint160(tokenContract.getPrevOwner(id)));\n        payable(recipient).transfer(msg.value);\n        tokenContract.transferFrom(address(this), msg.sender, id);\n    }\n}\n",
  "sourcePath": "/Users/yangdai/Desktop/CryptoHackathon/solidity/contracts/TokenMarket.sol",
  "compiler": {
    "name": "solc",
    "version": "0.8.17+commit.8df45f5f.Emscripten.clang"
  },
  "schemaVersion": "3.4.10",
  "updatedAt": "2022-10-08T07:30:13.893Z",
  "networkType": "ethereum",
  "devdoc": {
    "kind": "dev",
    "methods": {},
    "version": 1
  },
  "userdoc": {
    "kind": "user",
    "methods": {},
    "version": 1
  }
}